{
  "_format": "hh-sol-artifact-1",
  "contractName": "Escrow",
  "sourceName": "contracts/Escrow.sol",
  "abi": [
    {
      "inputs": [
        {
          "internalType": "uint256",
          "name": "_platformFee",
          "type": "uint256"
        },
        {
          "internalType": "address",
          "name": "_feeCollector",
          "type": "address"
        }
      ],
      "stateMutability": "nonpayable",
      "type": "constructor"
    },
    {
      "anonymous": false,
      "inputs": [
        {
          "indexed": true,
          "internalType": "bytes32",
          "name": "transactionId",
          "type": "bytes32"
        },
        {
          "indexed": true,
          "internalType": "address",
          "name": "raiser",
          "type": "address"
        }
      ],
      "name": "DisputeRaised",
      "type": "event"
    },
    {
      "anonymous": false,
      "inputs": [
        {
          "indexed": true,
          "internalType": "bytes32",
          "name": "transactionId",
          "type": "bytes32"
        },
        {
          "indexed": false,
          "internalType": "bool",
          "name": "refunded",
          "type": "bool"
        }
      ],
      "name": "DisputeResolved",
      "type": "event"
    },
    {
      "anonymous": false,
      "inputs": [
        {
          "indexed": false,
          "internalType": "address",
          "name": "newCollector",
          "type": "address"
        }
      ],
      "name": "FeeCollectorUpdated",
      "type": "event"
    },
    {
      "anonymous": false,
      "inputs": [
        {
          "indexed": true,
          "internalType": "bytes32",
          "name": "transactionId",
          "type": "bytes32"
        },
        {
          "indexed": true,
          "internalType": "address",
          "name": "buyer",
          "type": "address"
        },
        {
          "indexed": false,
          "internalType": "uint256",
          "name": "amount",
          "type": "uint256"
        }
      ],
      "name": "FundsRefunded",
      "type": "event"
    },
    {
      "anonymous": false,
      "inputs": [
        {
          "indexed": true,
          "internalType": "bytes32",
          "name": "transactionId",
          "type": "bytes32"
        },
        {
          "indexed": true,
          "internalType": "address",
          "name": "supplier",
          "type": "address"
        },
        {
          "indexed": false,
          "internalType": "uint256",
          "name": "amount",
          "type": "uint256"
        }
      ],
      "name": "FundsReleased",
      "type": "event"
    },
    {
      "anonymous": false,
      "inputs": [
        {
          "indexed": true,
          "internalType": "address",
          "name": "previousOwner",
          "type": "address"
        },
        {
          "indexed": true,
          "internalType": "address",
          "name": "newOwner",
          "type": "address"
        }
      ],
      "name": "OwnershipTransferred",
      "type": "event"
    },
    {
      "anonymous": false,
      "inputs": [
        {
          "indexed": false,
          "internalType": "uint256",
          "name": "newFee",
          "type": "uint256"
        }
      ],
      "name": "PlatformFeeUpdated",
      "type": "event"
    },
    {
      "anonymous": false,
      "inputs": [
        {
          "indexed": true,
          "internalType": "bytes32",
          "name": "transactionId",
          "type": "bytes32"
        },
        {
          "indexed": true,
          "internalType": "address",
          "name": "buyer",
          "type": "address"
        },
        {
          "indexed": true,
          "internalType": "address",
          "name": "supplier",
          "type": "address"
        },
        {
          "indexed": false,
          "internalType": "uint256",
          "name": "amount",
          "type": "uint256"
        }
      ],
      "name": "TransactionCreated",
      "type": "event"
    },
    {
      "inputs": [
        {
          "internalType": "address",
          "name": "_supplier",
          "type": "address"
        },
        {
          "internalType": "string",
          "name": "_metadata",
          "type": "string"
        }
      ],
      "name": "createTransaction",
      "outputs": [],
      "stateMutability": "payable",
      "type": "function"
    },
    {
      "inputs": [],
      "name": "feeCollector",
      "outputs": [
        {
          "internalType": "address",
          "name": "",
          "type": "address"
        }
      ],
      "stateMutability": "view",
      "type": "function"
    },
    {
      "inputs": [
        {
          "internalType": "bytes32",
          "name": "_transactionId",
          "type": "bytes32"
        }
      ],
      "name": "getTransaction",
      "outputs": [
        {
          "internalType": "address",
          "name": "buyer",
          "type": "address"
        },
        {
          "internalType": "address",
          "name": "supplier",
          "type": "address"
        },
        {
          "internalType": "uint256",
          "name": "amount",
          "type": "uint256"
        },
        {
          "internalType": "uint256",
          "name": "timestamp",
          "type": "uint256"
        },
        {
          "internalType": "bool",
          "name": "isReleased",
          "type": "bool"
        },
        {
          "internalType": "bool",
          "name": "isRefunded",
          "type": "bool"
        },
        {
          "internalType": "bool",
          "name": "isDisputed",
          "type": "bool"
        },
        {
          "internalType": "string",
          "name": "metadata",
          "type": "string"
        }
      ],
      "stateMutability": "view",
      "type": "function"
    },
    {
      "inputs": [],
      "name": "owner",
      "outputs": [
        {
          "internalType": "address",
          "name": "",
          "type": "address"
        }
      ],
      "stateMutability": "view",
      "type": "function"
    },
    {
      "inputs": [],
      "name": "platformFee",
      "outputs": [
        {
          "internalType": "uint256",
          "name": "",
          "type": "uint256"
        }
      ],
      "stateMutability": "view",
      "type": "function"
    },
    {
      "inputs": [
        {
          "internalType": "bytes32",
          "name": "_transactionId",
          "type": "bytes32"
        }
      ],
      "name": "raiseDispute",
      "outputs": [],
      "stateMutability": "nonpayable",
      "type": "function"
    },
    {
      "inputs": [
        {
          "internalType": "bytes32",
          "name": "_transactionId",
          "type": "bytes32"
        }
      ],
      "name": "refundFunds",
      "outputs": [],
      "stateMutability": "nonpayable",
      "type": "function"
    },
    {
      "inputs": [
        {
          "internalType": "bytes32",
          "name": "_transactionId",
          "type": "bytes32"
        }
      ],
      "name": "releaseFunds",
      "outputs": [],
      "stateMutability": "nonpayable",
      "type": "function"
    },
    {
      "inputs": [],
      "name": "renounceOwnership",
      "outputs": [],
      "stateMutability": "nonpayable",
      "type": "function"
    },
    {
      "inputs": [
        {
          "internalType": "bytes32",
          "name": "_transactionId",
          "type": "bytes32"
        },
        {
          "internalType": "bool",
          "name": "_refund",
          "type": "bool"
        }
      ],
      "name": "resolveDispute",
      "outputs": [],
      "stateMutability": "nonpayable",
      "type": "function"
    },
    {
      "inputs": [
        {
          "internalType": "bytes32",
          "name": "",
          "type": "bytes32"
        }
      ],
      "name": "transactions",
      "outputs": [
        {
          "internalType": "address",
          "name": "buyer",
          "type": "address"
        },
        {
          "internalType": "address",
          "name": "supplier",
          "type": "address"
        },
        {
          "internalType": "uint256",
          "name": "amount",
          "type": "uint256"
        },
        {
          "internalType": "uint256",
          "name": "timestamp",
          "type": "uint256"
        },
        {
          "internalType": "bool",
          "name": "isReleased",
          "type": "bool"
        },
        {
          "internalType": "bool",
          "name": "isRefunded",
          "type": "bool"
        },
        {
          "internalType": "bool",
          "name": "isDisputed",
          "type": "bool"
        },
        {
          "internalType": "string",
          "name": "metadata",
          "type": "string"
        }
      ],
      "stateMutability": "view",
      "type": "function"
    },
    {
      "inputs": [
        {
          "internalType": "address",
          "name": "newOwner",
          "type": "address"
        }
      ],
      "name": "transferOwnership",
      "outputs": [],
      "stateMutability": "nonpayable",
      "type": "function"
    },
    {
      "inputs": [
        {
          "internalType": "address",
          "name": "_newCollector",
          "type": "address"
        }
      ],
      "name": "updateFeeCollector",
      "outputs": [],
      "stateMutability": "nonpayable",
      "type": "function"
    },
    {
      "inputs": [
        {
          "internalType": "uint256",
          "name": "_newFee",
          "type": "uint256"
        }
      ],
      "name": "updatePlatformFee",
      "outputs": [],
      "stateMutability": "nonpayable",
      "type": "function"
    },
    {
      "stateMutability": "payable",
      "type": "receive"
    }
  ],
  "bytecode": "0x608060405234801561001057600080fd5b50604051620019d2380380620019d283398101604081905261003191610111565b600160005561003f336100bf565b6103e88211156100955760405162461bcd60e51b815260206004820152601560248201527f4665652063616e6e6f7420657863656564203130250000000000000000000000604482015260640160405180910390fd5b600391909155600480546001600160a01b0319166001600160a01b0390921691909117905561014e565b600180546001600160a01b038381166001600160a01b0319831681179093556040519116919082907f8be0079c531659141344cd1fd0a4f28419497f9722a3daafe3b4186f6b6457e090600090a35050565b6000806040838503121561012457600080fd5b825160208401519092506001600160a01b038116811461014357600080fd5b809150509250929050565b611874806200015e6000396000f3fe6080604052600436106100e15760003560e01c8063aa0b59881161007f578063d2c35ce811610059578063d2c35ce814610253578063e14f5b7d14610273578063eb2fadf014610293578063f2fde38b146102a657600080fd5b8063aa0b5988146101f3578063c415b95c14610213578063c92ee0431461023357600080fd5b8063642f2eaf116100bb578063642f2eaf1461016c578063715018a61461018c5780638da5cb5b146101a15780639fd70182146101d357600080fd5b806326232a2e146100ed57806343a0e3e6146101165780634aae13ca1461013857600080fd5b366100e857005b600080fd5b3480156100f957600080fd5b5061010360035481565b6040519081526020015b60405180910390f35b34801561012257600080fd5b5061013661013136600461145d565b6102c6565b005b34801561014457600080fd5b50610158610153366004611492565b610627565b60405161010d9897969594939291906114ab565b34801561017857600080fd5b50610158610187366004611492565b610737565b34801561019857600080fd5b5061013661081c565b3480156101ad57600080fd5b506001546001600160a01b03165b6040516001600160a01b03909116815260200161010d565b3480156101df57600080fd5b506101366101ee366004611492565b610830565b3480156101ff57600080fd5b5061013661020e366004611492565b610a65565b34801561021f57600080fd5b506004546101bb906001600160a01b031681565b34801561023f57600080fd5b5061013661024e366004611492565b610af3565b34801561025f57600080fd5b5061013661026e366004611563565b610e07565b34801561027f57600080fd5b5061013661028e366004611492565b610eb3565b6101366102a136600461159b565b611054565b3480156102b257600080fd5b506101366102c1366004611563565b6112e2565b6102ce611358565b6000828152600260205260409020600481015462010000900460ff1661032f5760405162461bcd60e51b8152602060048201526011602482015270139bc8191a5cdc1d5d19481c985a5cd959607a1b60448201526064015b60405180910390fd5b600481015460ff16156103545760405162461bcd60e51b81526004016103269061165d565b6004810154610100900460ff16156103a15760405162461bcd60e51b815260206004820152601060248201526f105b1c9958591e481c99599d5b99195960821b6044820152606401610326565b811561045d5760048101805461ff001916610100179055805460028201546040516000926001600160a01b031691908381818185875af1925050503d8060008114610408576040519150601f19603f3d011682016040523d82523d6000602084013e61040d565b606091505b50509050806104575760405162461bcd60e51b81526020600482015260166024820152751499599d5b99081d1c985b9cd9995c8819985a5b195960521b6044820152606401610326565b506105e6565b60048101805460ff1916600117905560035460028201546000916127109161048591906116a3565b61048f91906116c0565b905060008183600201546104a391906116e2565b6004546040519192506000916001600160a01b039091169084908381818185875af1925050503d80600081146104f5576040519150601f19603f3d011682016040523d82523d6000602084013e6104fa565b606091505b50509050806105415760405162461bcd60e51b8152602060048201526013602482015272119959481d1c985b9cd9995c8819985a5b1959606a1b6044820152606401610326565b60018401546040516000916001600160a01b03169084908381818185875af1925050503d8060008114610590576040519150601f19603f3d011682016040523d82523d6000602084013e610595565b606091505b50509050806105e15760405162461bcd60e51b815260206004820152601860248201527714dd5c1c1b1a595c881d1c985b9cd9995c8819985a5b195960421b6044820152606401610326565b505050505b827f6309d9f2499864a4f9d4ddb22f2b493afde8c215a1cd2e178647596cffe2efa48360405161061a911515815260200190565b60405180910390a2505050565b6000818152600260208190526040822080546001820154928201546003830154600484015460058501805488978897889788978897889760609794966001600160a01b0394851696909416949293919260ff8083169361010084048216936201000090049091169190819061069b906116f5565b80601f01602080910402602001604051908101604052809291908181526020018280546106c7906116f5565b80156107145780601f106106e957610100808354040283529160200191610714565b820191906000526020600020905b8154815290600101906020018083116106f757829003601f168201915b505050505090509850985098509850985098509850985050919395975091939597565b60026020819052600091825260409091208054600182015492820154600383015460048401546005850180546001600160a01b0395861697909516959394929360ff8084169461010085048216946201000090049091169290610799906116f5565b80601f01602080910402602001604051908101604052809291908181526020018280546107c5906116f5565b80156108125780601f106107e757610100808354040283529160200191610812565b820191906000526020600020905b8154815290600101906020018083116107f557829003601f168201915b5050505050905088565b610824611358565b61082e60006113b2565b565b610838611404565b600081815260026020526040902080546001600160a01b031633146108975760405162461bcd60e51b815260206004820152601560248201527413db9b1e48189d5e595c8818d85b881c99599d5b99605a1b6044820152606401610326565b600481015460ff16156108bc5760405162461bcd60e51b81526004016103269061165d565b6004810154610100900460ff16156109095760405162461bcd60e51b815260206004820152601060248201526f105b1c9958591e481c99599d5b99195960821b6044820152606401610326565b600481015462010000900460ff161561095e5760405162461bcd60e51b8152602060048201526017602482015276151c985b9cd858dd1a5bdb881a5cc8191a5cdc1d5d1959604a1b6044820152606401610326565b60048101805461ff001916610100179055805460028201546040516000926001600160a01b031691908381818185875af1925050503d80600081146109bf576040519150601f19603f3d011682016040523d82523d6000602084013e6109c4565b606091505b5050905080610a0e5760405162461bcd60e51b81526020600482015260166024820152751499599d5b99081d1c985b9cd9995c8819985a5b195960521b6044820152606401610326565b815460028301546040519081526001600160a01b039091169084907fbb0af7321a16834399146ab3819202a61859e53d69bd9cf889c444dfe69f1bb29060200160405180910390a35050610a626001600055565b50565b610a6d611358565b6103e8811115610ab75760405162461bcd60e51b81526020600482015260156024820152744665652063616e6e6f74206578636565642031302560581b6044820152606401610326565b60038190556040518181527f45610d581145924dd7090a5017e5f2b1d6f42213bb2e95707ff86846bbfcb1ca906020015b60405180910390a150565b610afb611404565b600081815260026020526040902080546001600160a01b03163314610b625760405162461bcd60e51b815260206004820152601c60248201527f4f6e6c792062757965722063616e2072656c656173652066756e6473000000006044820152606401610326565b600481015460ff1615610b875760405162461bcd60e51b81526004016103269061165d565b6004810154610100900460ff1615610bdc5760405162461bcd60e51b8152602060048201526018602482015277151c985b9cd858dd1a5bdb881dd85cc81c99599d5b99195960421b6044820152606401610326565b600481015462010000900460ff1615610c315760405162461bcd60e51b8152602060048201526017602482015276151c985b9cd858dd1a5bdb881a5cc8191a5cdc1d5d1959604a1b6044820152606401610326565b60006127106003548360020154610c4891906116a3565b610c5291906116c0565b90506000818360020154610c6691906116e2565b6004848101805460ff19166001179055546040519192506000916001600160a01b039091169084908381818185875af1925050503d8060008114610cc6576040519150601f19603f3d011682016040523d82523d6000602084013e610ccb565b606091505b5050905080610d125760405162461bcd60e51b8152602060048201526013602482015272119959481d1c985b9cd9995c8819985a5b1959606a1b6044820152606401610326565b60018401546040516000916001600160a01b03169084908381818185875af1925050503d8060008114610d61576040519150601f19603f3d011682016040523d82523d6000602084013e610d66565b606091505b5050905080610db25760405162461bcd60e51b815260206004820152601860248201527714dd5c1c1b1a595c881d1c985b9cd9995c8819985a5b195960421b6044820152606401610326565b60018501546040518481526001600160a01b039091169087907f75d86e5bfa1175e2dc677f3abe3aebba3069f2db6ae492f1734d4b4bc65f61c19060200160405180910390a35050505050610a626001600055565b610e0f611358565b6001600160a01b038116610e655760405162461bcd60e51b815260206004820152601d60248201527f496e76616c69642066656520636f6c6c6563746f7220616464726573730000006044820152606401610326565b600480546001600160a01b0319166001600160a01b0383169081179091556040519081527fe5693914d19c789bdee50a362998c0bc8d035a835f9871da5d51152f0582c34f90602001610ae8565b600081815260026020526040902080546001600160a01b0316331480610ee5575060018101546001600160a01b031633145b610f425760405162461bcd60e51b815260206004820152602860248201527f4f6e6c79206275796572206f7220737570706c6965722063616e207261697365604482015267206469737075746560c01b6064820152608401610326565b600481015460ff1615610f675760405162461bcd60e51b81526004016103269061165d565b6004810154610100900460ff1615610fbc5760405162461bcd60e51b8152602060048201526018602482015277151c985b9cd858dd1a5bdb881dd85cc81c99599d5b99195960421b6044820152606401610326565b600481015462010000900460ff16156110105760405162461bcd60e51b8152602060048201526016602482015275111a5cdc1d5d1948185b1c9958591e481c985a5cd95960521b6044820152606401610326565b60048101805462ff0000191662010000179055604051339083907fa71ec46ab116e07f9703467558af33f82718419b32e2acafa86c65587891e3cc90600090a35050565b61105c611404565b600034116110ac5760405162461bcd60e51b815260206004820152601d60248201527f416d6f756e74206d7573742062652067726561746572207468616e20300000006044820152606401610326565b6001600160a01b0382166111025760405162461bcd60e51b815260206004820152601860248201527f496e76616c696420737570706c696572206164647265737300000000000000006044820152606401610326565b336001600160a01b0383160361115a5760405162461bcd60e51b815260206004820152601860248201527f42757965722063616e6e6f7420626520737570706c69657200000000000000006044820152606401610326565b6040516bffffffffffffffffffffffff1933606090811b8216602084015284901b16603482015234604882015242606882015260009060880160408051601f19818403018152828252805160209182012061010080850184523385526001600160a01b03888116868501908152348787019081524260608901908152600060808a0181815260a08b0182815260c08c0183815260e08d018f81528a855260029b8c90529b9093208c5181549089166001600160a01b031991821617825596516001820180549190991697169690961790965592519784019790975551600383015551600482018054935196511515620100000262ff00001997151590950261ff00199215159290921661ffff19909416939093171794909416919091179055915191935090600582019061128e908261177e565b50506040513481526001600160a01b0385169150339083907f899644d4eb82881fe02a2f3ff5b90179caf815a74b619e0bf8a03d6f316c02129060200160405180910390a4506112de6001600055565b5050565b6112ea611358565b6001600160a01b03811661134f5760405162461bcd60e51b815260206004820152602660248201527f4f776e61626c653a206e6577206f776e657220697320746865207a65726f206160448201526564647265737360d01b6064820152608401610326565b610a62816113b2565b6001546001600160a01b0316331461082e5760405162461bcd60e51b815260206004820181905260248201527f4f776e61626c653a2063616c6c6572206973206e6f7420746865206f776e65726044820152606401610326565b600180546001600160a01b038381166001600160a01b0319831681179093556040519116919082907f8be0079c531659141344cd1fd0a4f28419497f9722a3daafe3b4186f6b6457e090600090a35050565b6002600054036114565760405162461bcd60e51b815260206004820152601f60248201527f5265656e7472616e637947756172643a207265656e7472616e742063616c6c006044820152606401610326565b6002600055565b6000806040838503121561147057600080fd5b823591506020830135801515811461148757600080fd5b809150509250929050565b6000602082840312156114a457600080fd5b5035919050565b600061010060018060a01b03808c1684526020818c16818601528a6040860152896060860152881515608086015287151560a086015286151560c08601528260e0860152855191508183860152600092505b8183101561151c578583018101518584016101200152918201916114fd565b506101209150600082828601015281601f19601f830116850101925050509998505050505050505050565b80356001600160a01b038116811461155e57600080fd5b919050565b60006020828403121561157557600080fd5b61157e82611547565b9392505050565b634e487b7160e01b600052604160045260246000fd5b600080604083850312156115ae57600080fd5b6115b783611547565b9150602083013567ffffffffffffffff808211156115d457600080fd5b818501915085601f8301126115e857600080fd5b8135818111156115fa576115fa611585565b604051601f8201601f19908116603f0116810190838211818310171561162257611622611585565b8160405282815288602084870101111561163b57600080fd5b8260208601602083013760006020848301015280955050505050509250929050565b602080825260169082015275119d5b991cc8185b1c9958591e481c995b19585cd95960521b604082015260600190565b634e487b7160e01b600052601160045260246000fd5b80820281158282048414176116ba576116ba61168d565b92915050565b6000826116dd57634e487b7160e01b600052601260045260246000fd5b500490565b818103818111156116ba576116ba61168d565b600181811c9082168061170957607f821691505b60208210810361172957634e487b7160e01b600052602260045260246000fd5b50919050565b601f82111561177957600081815260208120601f850160051c810160208610156117565750805b601f850160051c820191505b8181101561177557828155600101611762565b5050505b505050565b815167ffffffffffffffff81111561179857611798611585565b6117ac816117a684546116f5565b8461172f565b602080601f8311600181146117e157600084156117c95750858301515b600019600386901b1c1916600185901b178555611775565b600085815260208120601f198616915b82811015611810578886015182559484019460019091019084016117f1565b508582101561182e5787850151600019600388901b60f8161c191681555b5050505050600190811b0190555056fea2646970667358221220139b0914d68c858ffdc5044f643ffcc427ae49f8db04365185a833721c35ea6564736f6c63430008140033",
  "linkReferences": {},
  "deployedLinkReferences": {}
}